{
  "_format": "hh-sol-artifact-1",
  "contractName": "Floyx",
  "sourceName": "contracts/Floyx.sol",
  "abi": [
    {
      "inputs": [],
      "stateMutability": "nonpayable",
      "type": "constructor"
    },
    {
      "anonymous": false,
      "inputs": [
        {
          "indexed": false,
          "internalType": "address",
          "name": "_admin",
          "type": "address"
        },
        {
          "indexed": false,
          "internalType": "bool",
          "name": "_enabled",
          "type": "bool"
        }
      ],
      "name": "AdminAccessSet",
      "type": "event"
    },
    {
      "anonymous": false,
      "inputs": [
        {
          "indexed": true,
          "internalType": "address",
          "name": "owner",
          "type": "address"
        },
        {
          "indexed": true,
          "internalType": "address",
          "name": "spender",
          "type": "address"
        },
        {
          "indexed": false,
          "internalType": "uint256",
          "name": "value",
          "type": "uint256"
        }
      ],
      "name": "Approval",
      "type": "event"
    },
    {
      "anonymous": false,
      "inputs": [
        {
          "indexed": true,
          "internalType": "address",
          "name": "previousOwner",
          "type": "address"
        },
        {
          "indexed": true,
          "internalType": "address",
          "name": "newOwner",
          "type": "address"
        }
      ],
      "name": "OwnershipTransferred",
      "type": "event"
    },
    {
      "anonymous": false,
      "inputs": [
        {
          "indexed": true,
          "internalType": "address",
          "name": "from",
          "type": "address"
        },
        {
          "indexed": true,
          "internalType": "address",
          "name": "to",
          "type": "address"
        },
        {
          "indexed": false,
          "internalType": "uint256",
          "name": "value",
          "type": "uint256"
        }
      ],
      "name": "Transfer",
      "type": "event"
    },
    {
      "inputs": [],
      "name": "MAX_SUPPLY",
      "outputs": [
        {
          "internalType": "uint256",
          "name": "",
          "type": "uint256"
        }
      ],
      "stateMutability": "view",
      "type": "function"
    },
    {
      "inputs": [
        {
          "internalType": "address",
          "name": "owner",
          "type": "address"
        },
        {
          "internalType": "address",
          "name": "spender",
          "type": "address"
        }
      ],
      "name": "allowance",
      "outputs": [
        {
          "internalType": "uint256",
          "name": "",
          "type": "uint256"
        }
      ],
      "stateMutability": "view",
      "type": "function"
    },
    {
      "inputs": [
        {
          "internalType": "address",
          "name": "spender",
          "type": "address"
        },
        {
          "internalType": "uint256",
          "name": "amount",
          "type": "uint256"
        }
      ],
      "name": "approve",
      "outputs": [
        {
          "internalType": "bool",
          "name": "",
          "type": "bool"
        }
      ],
      "stateMutability": "nonpayable",
      "type": "function"
    },
    {
      "inputs": [
        {
          "internalType": "address",
          "name": "account",
          "type": "address"
        }
      ],
      "name": "balanceOf",
      "outputs": [
        {
          "internalType": "uint256",
          "name": "",
          "type": "uint256"
        }
      ],
      "stateMutability": "view",
      "type": "function"
    },
    {
      "inputs": [
        {
          "internalType": "uint256",
          "name": "amount",
          "type": "uint256"
        }
      ],
      "name": "burn",
      "outputs": [],
      "stateMutability": "nonpayable",
      "type": "function"
    },
    {
      "inputs": [
        {
          "internalType": "address",
          "name": "account",
          "type": "address"
        },
        {
          "internalType": "uint256",
          "name": "amount",
          "type": "uint256"
        }
      ],
      "name": "burnFrom",
      "outputs": [],
      "stateMutability": "nonpayable",
      "type": "function"
    },
    {
      "inputs": [],
      "name": "decimals",
      "outputs": [
        {
          "internalType": "uint8",
          "name": "",
          "type": "uint8"
        }
      ],
      "stateMutability": "view",
      "type": "function"
    },
    {
      "inputs": [
        {
          "internalType": "address",
          "name": "spender",
          "type": "address"
        },
        {
          "internalType": "uint256",
          "name": "subtractedValue",
          "type": "uint256"
        }
      ],
      "name": "decreaseAllowance",
      "outputs": [
        {
          "internalType": "bool",
          "name": "",
          "type": "bool"
        }
      ],
      "stateMutability": "nonpayable",
      "type": "function"
    },
    {
      "inputs": [
        {
          "internalType": "address",
          "name": "spender",
          "type": "address"
        },
        {
          "internalType": "uint256",
          "name": "addedValue",
          "type": "uint256"
        }
      ],
      "name": "increaseAllowance",
      "outputs": [
        {
          "internalType": "bool",
          "name": "",
          "type": "bool"
        }
      ],
      "stateMutability": "nonpayable",
      "type": "function"
    },
    {
      "inputs": [
        {
          "internalType": "address",
          "name": "admin",
          "type": "address"
        }
      ],
      "name": "isAdmin",
      "outputs": [
        {
          "internalType": "bool",
          "name": "",
          "type": "bool"
        }
      ],
      "stateMutability": "view",
      "type": "function"
    },
    {
      "inputs": [
        {
          "internalType": "address",
          "name": "to",
          "type": "address"
        },
        {
          "internalType": "uint256",
          "name": "amount",
          "type": "uint256"
        }
      ],
      "name": "mint",
      "outputs": [],
      "stateMutability": "nonpayable",
      "type": "function"
    },
    {
      "inputs": [],
      "name": "name",
      "outputs": [
        {
          "internalType": "string",
          "name": "",
          "type": "string"
        }
      ],
      "stateMutability": "view",
      "type": "function"
    },
    {
      "inputs": [],
      "name": "owner",
      "outputs": [
        {
          "internalType": "address",
          "name": "",
          "type": "address"
        }
      ],
      "stateMutability": "view",
      "type": "function"
    },
    {
      "inputs": [],
      "name": "renounceOwnership",
      "outputs": [],
      "stateMutability": "nonpayable",
      "type": "function"
    },
    {
      "inputs": [
        {
          "internalType": "address",
          "name": "admin",
          "type": "address"
        },
        {
          "internalType": "bool",
          "name": "enabled",
          "type": "bool"
        }
      ],
      "name": "setAdmin",
      "outputs": [],
      "stateMutability": "nonpayable",
      "type": "function"
    },
    {
      "inputs": [],
      "name": "symbol",
      "outputs": [
        {
          "internalType": "string",
          "name": "",
          "type": "string"
        }
      ],
      "stateMutability": "view",
      "type": "function"
    },
    {
      "inputs": [],
      "name": "totalSupply",
      "outputs": [
        {
          "internalType": "uint256",
          "name": "",
          "type": "uint256"
        }
      ],
      "stateMutability": "view",
      "type": "function"
    },
    {
      "inputs": [
        {
          "internalType": "address",
          "name": "to",
          "type": "address"
        },
        {
          "internalType": "uint256",
          "name": "amount",
          "type": "uint256"
        }
      ],
      "name": "transfer",
      "outputs": [
        {
          "internalType": "bool",
          "name": "",
          "type": "bool"
        }
      ],
      "stateMutability": "nonpayable",
      "type": "function"
    },
    {
      "inputs": [
        {
          "internalType": "address",
          "name": "from",
          "type": "address"
        },
        {
          "internalType": "address",
          "name": "to",
          "type": "address"
        },
        {
          "internalType": "uint256",
          "name": "amount",
          "type": "uint256"
        }
      ],
      "name": "transferFrom",
      "outputs": [
        {
          "internalType": "bool",
          "name": "",
          "type": "bool"
        }
      ],
      "stateMutability": "nonpayable",
      "type": "function"
    },
    {
      "inputs": [
        {
          "internalType": "address",
          "name": "newOwner",
          "type": "address"
        }
      ],
      "name": "transferOwnership",
      "outputs": [],
      "stateMutability": "nonpayable",
      "type": "function"
    }
  ],
  "bytecode": "0x60806040523480156200001157600080fd5b506040518060400160405280600581526020017f466c6f79780000000000000000000000000000000000000000000000000000008152506040518060400160405280600581526020017f464c4f5958000000000000000000000000000000000000000000000000000000815250816003908051906020019062000096929190620001a6565b508060049080519060200190620000af929190620001a6565b505050620000d2620000c6620000d860201b60201c565b620000e060201b60201c565b620002bb565b600033905090565b6000600560009054906101000a900473ffffffffffffffffffffffffffffffffffffffff16905081600560006101000a81548173ffffffffffffffffffffffffffffffffffffffff021916908373ffffffffffffffffffffffffffffffffffffffff1602179055508173ffffffffffffffffffffffffffffffffffffffff168173ffffffffffffffffffffffffffffffffffffffff167f8be0079c531659141344cd1fd0a4f28419497f9722a3daafe3b4186f6b6457e060405160405180910390a35050565b828054620001b49062000285565b90600052602060002090601f016020900481019282620001d8576000855562000224565b82601f10620001f357805160ff191683800117855562000224565b8280016001018555821562000224579182015b828111156200022357825182559160200191906001019062000206565b5b50905062000233919062000237565b5090565b5b808211156200025257600081600090555060010162000238565b5090565b7f4e487b7100000000000000000000000000000000000000000000000000000000600052602260045260246000fd5b600060028204905060018216806200029e57607f821691505b60208210811415620002b557620002b462000256565b5b50919050565b61200380620002cb6000396000f3fe608060405234801561001057600080fd5b506004361061012c5760003560e01c80634b0bddd2116100ad57806395d89b411161007157806395d89b4114610331578063a457c2d71461034f578063a9059cbb1461037f578063dd62ed3e146103af578063f2fde38b146103df5761012c565b80634b0bddd2146102a157806370a08231146102bd578063715018a6146102ed57806379cc6790146102f75780638da5cb5b146103135761012c565b8063313ce567116100f4578063313ce567146101fd57806332cb6b0c1461021b578063395093511461023957806340c10f191461026957806342966c68146102855761012c565b806306fdde0314610131578063095ea7b31461014f57806318160ddd1461017f57806323b872dd1461019d57806324d7806c146101cd575b600080fd5b6101396103fb565b6040516101469190611445565b60405180910390f35b61016960048036038101906101649190611500565b61048d565b604051610176919061155b565b60405180910390f35b6101876104b0565b6040516101949190611585565b60405180910390f35b6101b760048036038101906101b291906115a0565b6104ba565b6040516101c4919061155b565b60405180910390f35b6101e760048036038101906101e291906115f3565b6104e9565b6040516101f4919061155b565b60405180910390f35b61020561053f565b604051610212919061163c565b60405180910390f35b610223610548565b6040516102309190611585565b60405180910390f35b610253600480360381019061024e9190611500565b610558565b604051610260919061155b565b60405180910390f35b610283600480360381019061027e9190611500565b61058f565b005b61029f600480360381019061029a9190611657565b6106d5565b005b6102bb60048036038101906102b691906116b0565b6106e9565b005b6102d760048036038101906102d291906115f3565b610785565b6040516102e49190611585565b60405180910390f35b6102f56107cd565b005b610311600480360381019061030c9190611500565b6107e1565b005b61031b610801565b60405161032891906116ff565b60405180910390f35b61033961082b565b6040516103469190611445565b60405180910390f35b61036960048036038101906103649190611500565b6108bd565b604051610376919061155b565b60405180910390f35b61039960048036038101906103949190611500565b610934565b6040516103a6919061155b565b60405180910390f35b6103c960048036038101906103c4919061171a565b610957565b6040516103d69190611585565b60405180910390f35b6103f960048036038101906103f491906115f3565b6109de565b005b60606003805461040a90611789565b80601f016020809104026020016040519081016040528092919081815260200182805461043690611789565b80156104835780601f1061045857610100808354040283529160200191610483565b820191906000526020600020905b81548152906001019060200180831161046657829003601f168201915b5050505050905090565b600080610498610a62565b90506104a5818585610a6a565b600191505092915050565b6000600254905090565b6000806104c5610a62565b90506104d2858285610c35565b6104dd858585610cc1565b60019150509392505050565b6000600660008373ffffffffffffffffffffffffffffffffffffffff1673ffffffffffffffffffffffffffffffffffffffff16815260200190815260200160002060009054906101000a900460ff169050919050565b60006012905090565b6b916720a817a68ab4c800000081565b600080610563610a62565b90506105848185856105758589610957565b61057f91906117ea565b610a6a565b600191505092915050565b6006600061059b610a62565b73ffffffffffffffffffffffffffffffffffffffff1673ffffffffffffffffffffffffffffffffffffffff16815260200190815260200160002060009054906101000a900460ff168061062757506105f1610801565b73ffffffffffffffffffffffffffffffffffffffff1661060f610a62565b73ffffffffffffffffffffffffffffffffffffffff16145b610666576040517f08c379a000000000000000000000000000000000000000000000000000000000815260040161065d906118b2565b60405180910390fd5b61066e6104b0565b8161067991906117ea565b6b916720a817a68ab4c800000010156106c7576040517f08c379a00000000000000000000000000000000000000000000000000000000081526004016106be9061191e565b60405180910390fd5b6106d18282610f39565b5050565b6106e66106e0610a62565b82611090565b50565b6106f161125e565b80600660008473ffffffffffffffffffffffffffffffffffffffff1673ffffffffffffffffffffffffffffffffffffffff16815260200190815260200160002060006101000a81548160ff0219169083151502179055507fe529461c8529abc0e0fe7c5ee361f74fe22e0b7574df1fc0b7558a282091fb78828260405161077992919061193e565b60405180910390a15050565b60008060008373ffffffffffffffffffffffffffffffffffffffff1673ffffffffffffffffffffffffffffffffffffffff168152602001908152602001600020549050919050565b6107d561125e565b6107df60006112dc565b565b6107f3826107ed610a62565b83610c35565b6107fd8282611090565b5050565b6000600560009054906101000a900473ffffffffffffffffffffffffffffffffffffffff16905090565b60606004805461083a90611789565b80601f016020809104026020016040519081016040528092919081815260200182805461086690611789565b80156108b35780601f10610888576101008083540402835291602001916108b3565b820191906000526020600020905b81548152906001019060200180831161089657829003601f168201915b5050505050905090565b6000806108c8610a62565b905060006108d68286610957565b90508381101561091b576040517f08c379a0000000000000000000000000000000000000000000000000000000008152600401610912906119d9565b60405180910390fd5b6109288286868403610a6a565b60019250505092915050565b60008061093f610a62565b905061094c818585610cc1565b600191505092915050565b6000600160008473ffffffffffffffffffffffffffffffffffffffff1673ffffffffffffffffffffffffffffffffffffffff16815260200190815260200160002060008373ffffffffffffffffffffffffffffffffffffffff1673ffffffffffffffffffffffffffffffffffffffff16815260200190815260200160002054905092915050565b6109e661125e565b600073ffffffffffffffffffffffffffffffffffffffff168173ffffffffffffffffffffffffffffffffffffffff161415610a56576040517f08c379a0000000000000000000000000000000000000000000000000000000008152600401610a4d90611a6b565b60405180910390fd5b610a5f816112dc565b50565b600033905090565b600073ffffffffffffffffffffffffffffffffffffffff168373ffffffffffffffffffffffffffffffffffffffff161415610ada576040517f08c379a0000000000000000000000000000000000000000000000000000000008152600401610ad190611afd565b60405180910390fd5b600073ffffffffffffffffffffffffffffffffffffffff168273ffffffffffffffffffffffffffffffffffffffff161415610b4a576040517f08c379a0000000000000000000000000000000000000000000000000000000008152600401610b4190611b8f565b60405180910390fd5b80600160008573ffffffffffffffffffffffffffffffffffffffff1673ffffffffffffffffffffffffffffffffffffffff16815260200190815260200160002060008473ffffffffffffffffffffffffffffffffffffffff1673ffffffffffffffffffffffffffffffffffffffff168152602001908152602001600020819055508173ffffffffffffffffffffffffffffffffffffffff168373ffffffffffffffffffffffffffffffffffffffff167f8c5be1e5ebec7d5bd14f71427d1e84f3dd0314c0f7b2291e5b200ac8c7c3b92583604051610c289190611585565b60405180910390a3505050565b6000610c418484610957565b90507fffffffffffffffffffffffffffffffffffffffffffffffffffffffffffffffff8114610cbb5781811015610cad576040517f08c379a0000000000000000000000000000000000000000000000000000000008152600401610ca490611bfb565b60405180910390fd5b610cba8484848403610a6a565b5b50505050565b600073ffffffffffffffffffffffffffffffffffffffff168373ffffffffffffffffffffffffffffffffffffffff161415610d31576040517f08c379a0000000000000000000000000000000000000000000000000000000008152600401610d2890611c8d565b60405180910390fd5b600073ffffffffffffffffffffffffffffffffffffffff168273ffffffffffffffffffffffffffffffffffffffff161415610da1576040517f08c379a0000000000000000000000000000000000000000000000000000000008152600401610d9890611d1f565b60405180910390fd5b610dac8383836113a2565b60008060008573ffffffffffffffffffffffffffffffffffffffff1673ffffffffffffffffffffffffffffffffffffffff16815260200190815260200160002054905081811015610e32576040517f08c379a0000000000000000000000000000000000000000000000000000000008152600401610e2990611db1565b60405180910390fd5b8181036000808673ffffffffffffffffffffffffffffffffffffffff1673ffffffffffffffffffffffffffffffffffffffff16815260200190815260200160002081905550816000808573ffffffffffffffffffffffffffffffffffffffff1673ffffffffffffffffffffffffffffffffffffffff168152602001908152602001600020600082825401925050819055508273ffffffffffffffffffffffffffffffffffffffff168473ffffffffffffffffffffffffffffffffffffffff167fddf252ad1be2c89b69c2b068fc378daa952ba7f163c4a11628f55a4df523b3ef84604051610f209190611585565b60405180910390a3610f338484846113a7565b50505050565b600073ffffffffffffffffffffffffffffffffffffffff168273ffffffffffffffffffffffffffffffffffffffff161415610fa9576040517f08c379a0000000000000000000000000000000000000000000000000000000008152600401610fa090611e1d565b60405180910390fd5b610fb5600083836113a2565b8060026000828254610fc791906117ea565b92505081905550806000808473ffffffffffffffffffffffffffffffffffffffff1673ffffffffffffffffffffffffffffffffffffffff168152602001908152602001600020600082825401925050819055508173ffffffffffffffffffffffffffffffffffffffff16600073ffffffffffffffffffffffffffffffffffffffff167fddf252ad1be2c89b69c2b068fc378daa952ba7f163c4a11628f55a4df523b3ef836040516110789190611585565b60405180910390a361108c600083836113a7565b5050565b600073ffffffffffffffffffffffffffffffffffffffff168273ffffffffffffffffffffffffffffffffffffffff161415611100576040517f08c379a00000000000000000000000000000000000000000000000000000000081526004016110f790611eaf565b60405180910390fd5b61110c826000836113a2565b60008060008473ffffffffffffffffffffffffffffffffffffffff1673ffffffffffffffffffffffffffffffffffffffff16815260200190815260200160002054905081811015611192576040517f08c379a000000000000000000000000000000000000000000000000000000000815260040161118990611f41565b60405180910390fd5b8181036000808573ffffffffffffffffffffffffffffffffffffffff1673ffffffffffffffffffffffffffffffffffffffff1681526020019081526020016000208190555081600260008282540392505081905550600073ffffffffffffffffffffffffffffffffffffffff168373ffffffffffffffffffffffffffffffffffffffff167fddf252ad1be2c89b69c2b068fc378daa952ba7f163c4a11628f55a4df523b3ef846040516112459190611585565b60405180910390a3611259836000846113a7565b505050565b611266610a62565b73ffffffffffffffffffffffffffffffffffffffff16611284610801565b73ffffffffffffffffffffffffffffffffffffffff16146112da576040517f08c379a00000000000000000000000000000000000000000000000000000000081526004016112d190611fad565b60405180910390fd5b565b6000600560009054906101000a900473ffffffffffffffffffffffffffffffffffffffff16905081600560006101000a81548173ffffffffffffffffffffffffffffffffffffffff021916908373ffffffffffffffffffffffffffffffffffffffff1602179055508173ffffffffffffffffffffffffffffffffffffffff168173ffffffffffffffffffffffffffffffffffffffff167f8be0079c531659141344cd1fd0a4f28419497f9722a3daafe3b4186f6b6457e060405160405180910390a35050565b505050565b505050565b600081519050919050565b600082825260208201905092915050565b60005b838110156113e65780820151818401526020810190506113cb565b838111156113f5576000848401525b50505050565b6000601f19601f8301169050919050565b6000611417826113ac565b61142181856113b7565b93506114318185602086016113c8565b61143a816113fb565b840191505092915050565b6000602082019050818103600083015261145f818461140c565b905092915050565b600080fd5b600073ffffffffffffffffffffffffffffffffffffffff82169050919050565b60006114978261146c565b9050919050565b6114a78161148c565b81146114b257600080fd5b50565b6000813590506114c48161149e565b92915050565b6000819050919050565b6114dd816114ca565b81146114e857600080fd5b50565b6000813590506114fa816114d4565b92915050565b6000806040838503121561151757611516611467565b5b6000611525858286016114b5565b9250506020611536858286016114eb565b9150509250929050565b60008115159050919050565b61155581611540565b82525050565b6000602082019050611570600083018461154c565b92915050565b61157f816114ca565b82525050565b600060208201905061159a6000830184611576565b92915050565b6000806000606084860312156115b9576115b8611467565b5b60006115c7868287016114b5565b93505060206115d8868287016114b5565b92505060406115e9868287016114eb565b9150509250925092565b60006020828403121561160957611608611467565b5b6000611617848285016114b5565b91505092915050565b600060ff82169050919050565b61163681611620565b82525050565b6000602082019050611651600083018461162d565b92915050565b60006020828403121561166d5761166c611467565b5b600061167b848285016114eb565b91505092915050565b61168d81611540565b811461169857600080fd5b50565b6000813590506116aa81611684565b92915050565b600080604083850312156116c7576116c6611467565b5b60006116d5858286016114b5565b92505060206116e68582860161169b565b9150509250929050565b6116f98161148c565b82525050565b600060208201905061171460008301846116f0565b92915050565b6000806040838503121561173157611730611467565b5b600061173f858286016114b5565b9250506020611750858286016114b5565b9150509250929050565b7f4e487b7100000000000000000000000000000000000000000000000000000000600052602260045260246000fd5b600060028204905060018216806117a157607f821691505b602082108114156117b5576117b461175a565b5b50919050565b7f4e487b7100000000000000000000000000000000000000000000000000000000600052601160045260246000fd5b60006117f5826114ca565b9150611800836114ca565b9250827fffffffffffffffffffffffffffffffffffffffffffffffffffffffffffffffff03821115611835576118346117bb565b5b828201905092915050565b7f43616c6c657220646f6573206e6f7420686176652041646d696e20416363657360008201527f7300000000000000000000000000000000000000000000000000000000000000602082015250565b600061189c6021836113b7565b91506118a782611840565b604082019050919050565b600060208201905081810360008301526118cb8161188f565b9050919050565b7f466c6f79783a2043616e206e6f7420657863656564206d617820737570706c79600082015250565b60006119086020836113b7565b9150611913826118d2565b602082019050919050565b60006020820190508181036000830152611937816118fb565b9050919050565b600060408201905061195360008301856116f0565b611960602083018461154c565b9392505050565b7f45524332303a2064656372656173656420616c6c6f77616e63652062656c6f7760008201527f207a65726f000000000000000000000000000000000000000000000000000000602082015250565b60006119c36025836113b7565b91506119ce82611967565b604082019050919050565b600060208201905081810360008301526119f2816119b6565b9050919050565b7f4f776e61626c653a206e6577206f776e657220697320746865207a65726f206160008201527f6464726573730000000000000000000000000000000000000000000000000000602082015250565b6000611a556026836113b7565b9150611a60826119f9565b604082019050919050565b60006020820190508181036000830152611a8481611a48565b9050919050565b7f45524332303a20617070726f76652066726f6d20746865207a65726f2061646460008201527f7265737300000000000000000000000000000000000000000000000000000000602082015250565b6000611ae76024836113b7565b9150611af282611a8b565b604082019050919050565b60006020820190508181036000830152611b1681611ada565b9050919050565b7f45524332303a20617070726f766520746f20746865207a65726f20616464726560008201527f7373000000000000000000000000000000000000000000000000000000000000602082015250565b6000611b796022836113b7565b9150611b8482611b1d565b604082019050919050565b60006020820190508181036000830152611ba881611b6c565b9050919050565b7f45524332303a20696e73756666696369656e7420616c6c6f77616e6365000000600082015250565b6000611be5601d836113b7565b9150611bf082611baf565b602082019050919050565b60006020820190508181036000830152611c1481611bd8565b9050919050565b7f45524332303a207472616e736665722066726f6d20746865207a65726f20616460008201527f6472657373000000000000000000000000000000000000000000000000000000602082015250565b6000611c776025836113b7565b9150611c8282611c1b565b604082019050919050565b60006020820190508181036000830152611ca681611c6a565b9050919050565b7f45524332303a207472616e7366657220746f20746865207a65726f206164647260008201527f6573730000000000000000000000000000000000000000000000000000000000602082015250565b6000611d096023836113b7565b9150611d1482611cad565b604082019050919050565b60006020820190508181036000830152611d3881611cfc565b9050919050565b7f45524332303a207472616e7366657220616d6f756e742065786365656473206260008201527f616c616e63650000000000000000000000000000000000000000000000000000602082015250565b6000611d9b6026836113b7565b9150611da682611d3f565b604082019050919050565b60006020820190508181036000830152611dca81611d8e565b9050919050565b7f45524332303a206d696e7420746f20746865207a65726f206164647265737300600082015250565b6000611e07601f836113b7565b9150611e1282611dd1565b602082019050919050565b60006020820190508181036000830152611e3681611dfa565b9050919050565b7f45524332303a206275726e2066726f6d20746865207a65726f2061646472657360008201527f7300000000000000000000000000000000000000000000000000000000000000602082015250565b6000611e996021836113b7565b9150611ea482611e3d565b604082019050919050565b60006020820190508181036000830152611ec881611e8c565b9050919050565b7f45524332303a206275726e20616d6f756e7420657863656564732062616c616e60008201527f6365000000000000000000000000000000000000000000000000000000000000602082015250565b6000611f2b6022836113b7565b9150611f3682611ecf565b604082019050919050565b60006020820190508181036000830152611f5a81611f1e565b9050919050565b7f4f776e61626c653a2063616c6c6572206973206e6f7420746865206f776e6572600082015250565b6000611f976020836113b7565b9150611fa282611f61565b602082019050919050565b60006020820190508181036000830152611fc681611f8a565b905091905056fea26469706673582212207ea01b27137673ea09e12983424e5c5adb608abd68048ec4e85e0aa71d9a200c64736f6c63430008090033",
  "linkReferences": {},
  "deployedLinkReferences": {}
}